:020000040800F2
:10000000801A0020097E0008AD7D0008AF7D000841
:1000100000000000000000000000000000000000E0
:10002000000000000000000000000000B37D000898
:100030000000000000000000B57D0008B77D00084A
:100040003735000800000000BF7D00081F38000899
:10005000334100087B5300088B5500088F5500087A
:1000600000000000975E000817660008076D000892
:1000700097780008AF790008000000003B7B00087B
:100080000000000000000000000000000000000070
:10009000EB7F00080000000000000000F77F000870
:1000A0000000000045820008000000000000000081
:1000B000D17D0008DB7D000800000000000000008A
:1000C000E022520080180268914203D34368D2189C
:1000D000914202D380680028F5D170471848016822
:1000E00000290ED180214902816009094160002167
:1000F000C943C160016104214161124A1160124982
:1001000001600120704730B407230C0008341C4202
:1001100001D1002304E008240D000835641B2340AE
:10012000C918D21A8161C260012313434B6028238E
:10013000091D8B5002490969C16130BC704700003C
:1001400038150020D80F00206859883CF0B587B0DA
:10015000040000BF00BFF52C00D32FE20B2C02D20D
:100160001020009003E00B34072084430094009893
:10017000C00855490968C1408A0748D001228A430E
:1001800080180190504C200028300199C900401877
:10019000009085680198C700686807218843B842C5
:1001A00001D001F0BBFAAE680098854201D101F0A0
:1001B000B5FAB54201D101F0B1FA68680721884368
:1001C000B84201D001F0AAFA0098B04206D12068E6
:1001D0000121019A9140884320600CE02069864209
:1001E00007D3F068A84204D1009886600098F060B8
:1001F00001E001F093FA032038436860281DC0191C
:10020000016801220A4302602C0000F084FF2E4D99
:10021000AA68009B9A4200D3E3E30124002900D19D
:10022000AEE00122824052008140534213430B4012
:1002300058421840401E010B10221140C84042098C
:1002400008231A40D040830804263340D84046088B
:1002500002273E40F040470827408918C9188919ED
:10026000C919F84008180390280028300399C900DC
:100270004718B86801900398C00002900198406840
:10028000072188430299884201D001F047FA01987A
:100290008668B84201D101F041FA0198B04201D11B
:1002A00001F03CFA0198406807218843029988428E
:1002B00001D001F033FAB74208D12968039A01202E
:1002C0009040814329600DE01C0E00202869864281
:1002D00006D3F0680199884202D1BE60F76001E060
:1002E00001F01CFA02980099401A0290009803212C
:1002F000014301984160029820430199091D009A29
:100300008850019800994018059002980599085066
:10031000A8680490C6081F2E01D901F0FFF90498BF
:10032000002826D068690090039628002830F10044
:1003300047183E000498102801D201F0EFF9286810
:1003400003990200CA40224003D18C4004432C6030
:1003500007E0B8682969884201D3060001E001F08E
:10036000DDF90098B8600098F06000988660009809
:10037000C7600298A86005986861019C00F0CBFEF8
:100380006868002800D14EE346420640761E300BD6
:1003900010210840C640710908221140CE40B20821
:1003A00004231A40D640730802273B40DE407708FA
:1003B0002740019798277F00EF1940188018C01830
:1003C00001994018CE40801980003A5817005068B3
:1003D000072188430099411A0098072607E01A0070
:1003E0005368B3431B1A8B4201D2190017001369DB
:1003F000002BF4D15269002AF2D1009001912869B2
:10040000874200D2D7E07868B0430199009A8918F2
:10041000884201D001F082F900983818069087428E
:1004200000D3C8E0B8690290FE68BE420CD0B8683C
:100430002969884225D3C168B94222D1B168B9423D
:100440001FD1C660B0601EE0380014300668002E70
:1004500007D1380010300668002E14D001E00800E3
:100460000668310014310A68002AF8D131001031D1
:100470000A68002AF3D12969884202D30021016069
:1004800001E001F04BF9029800283CD09820400090
:100490002818F9698900401801688F4209D106605F
:1004A000002E14D16968FA69012090408143696087
:1004B00029E002982969884207D30069B842029866
:1004C00001D1066103E0466101E001F027F9002E49
:1004D00019D02869864214D30299B161396900297B
:1004E00006D0814202D331618E6101E001F016F93C
:1004F0007869002807D02969884202D37061866133
:1005000001E001F00BF903200199102909D2009AAA
:10051000891808437860381D401801680C4304604E
:1005200043E000990843786001982043391D009A00
:100530008850019806990850A8680590C6081F2E93
:1005400001D901F0EBF8059800282AD068690390DA
:10055000049628002830F1004018029006460598BD
:10056000102801D201F0DAF8286804990200CA4084
:10057000224003D18C4004432C6008E0029880683C
:100580002969884201D3060001E001F0C7F8039809
:10059000029988600398F060039886600298039936
:1005A000C8600198A860069868613C00083400D1D2
:1005B00017E200F0B3FD01F0B1F812E23F20C043B2
:1005C000844203D30020C04300900AE20B3407208A
:1005D0008443009423484068002800D101E20025AC
:1005E0002046414201910098000A25D0802149020D
:1005F000884201D31F201FE0FF21C9434118090C85
:10060000082211408840B94A8218120C04231A406B
:100610009040154BC3181B0C022423400E24611A72
:10062000891AC91A9840C00B08184100009AC01DC9
:10063000C240D007C00F081802900A4C9820400012
:10064000201802998900405800282CD002991F29AF
:10065000009B04D01921029A5208891A8B4000226B
:10066000019904E01C0E002000C0FFFF5B004668FB
:100670000727BE43009FF61B8E4202D205003100C1
:100680000CD046691030DF0FBF00C059002E02D0D9
:10069000864200D032000028E8D1100001910028E5
:1006A0003CD1002D40D101200299884040004242B7
:1006B00002436168114000D193E148420840401E66
:1006C000010B10221140C840420908231A40D040B3
:1006D000830804263340D840460802273E4002964D
:1006E000F0408607F60F98277F00E7198918C91888
:1006F000029A89188919F0400818800038580DE0CE
:1007000018004368B3435B1A934201D21A000500F4
:100710000369002BF4D1009101924069002803D0B5
:100720000099019A0726ECE7002D00D159E10198C4
:10073000A168009A891A884200D352E12069854253
:1007400000D238E701988018039068680721884331
:100750000399884201D000F0E1FF00982E18B542BD
:1007600000D328E7A8690290EF68AF420CD0A868D0
:100770002169884225D3C168A94222D1B968A9421A
:100780001FD1C760B8601EE0280014300768002F32
:1007900007D1280010300768002F14D001E00800AE
:1007A0000768390014310A68002AF8D1390010317D
:1007B0000A68002AF3D12169884202D3002101602E
:1007C00001E000F0ABFF029800283CD098204000E8
:1007D0002018E9698900401801688D4209D1076035
:1007E000002F14D160680121EA699140884360605C
:1007F00029E002982169884207D30069A84202983B
:1008000001D1076103E0476101E000F087FF002F9D
:1008100019D02069874214D30299B9612969002946
:1008200006D0814202D339618F6101E000F076FF8A
:100830006869002807D02169884202D378618761FE
:1008400001E000F06BFF01210320019A102A09D278
:10085000039A10436860281D039A801802681143A8
:100860000160BAE0009A10436860019808432A1DAD
:10087000009BD050019830500198C0081F2822D802
:1008800022002832C300D718019722681300C34002
:100890000B4003D181401143216007E0B868216912
:1008A000884201D3019001E000F038FFBE6001985A
:1008B000C660019829000831009A885028000C3041
:1008C0000099475089E00198000A2BD00A04904211
:1008D00001D31F2026E0FF22D2438218120C0823E6
:1008E0001A4003929040014A02E000BF00F0FFFF6F
:1008F0008218120C04231A4090407C4BC3181B0C26
:1009000002273B4002930E23039FDB1B9A1A029B94
:10091000D21A9840C00B10184200019BC01DC34062
:100920000B40D01898225200A2188300D2180292CD
:10093000F06100222B001433009FDA512B0010339A
:10094000009FDA5162681300C3400B4007D1814019
:1009500011436160029806600298B0611FE002993D
:1009600009681F28019B01D1019805E01922400860
:10097000101A8340F8E739004A680727BA438242D1
:1009800016D00A001032DF0FBF00D2195B001768C3
:10099000002FF0D1206982421DD31660B16128007A
:1009A0000C3000994650280008300099465014E059
:1009B0008868226991420ED390420CD3C6608E6043
:1009C0002A000832009BD05028000C30009A815039
:1009D0000020B06101E000F0A1FE2C00083400D03E
:1009E0009CE3434A9368009883421CD31D1A5069C4
:1009F00001210324102D0AD3009BC3185361956075
:100A0000294359605D5100990C43446009E0002579
:100A1000956055611C434460021DD2181368194348
:100A20001160040077E3324CE0680099814200D203
:100A300063E3304D2868002801D1FFF74FFBA96818
:100A4000009840182F30491E88430099814200D3F6
:100A500063E3D821490061188968002909D0D822A8
:100A60005200A2581018824200D356E3814200D2AD
:100A700053E300F059FE002800D14EE3076800213F
:100A8000C943884200D148E3D82149006158C919B7
:100A9000D8225200A150A21852688A4203D2D8220A
:100AA0005200A2185160A169002927D121690029AB
:100AB00001D0884200D220610F4A106157610021A5
:100AC000D1612A6862620022D24322622200283267
:100AD000D26013469360083353611361891C10324E
:100AE0001F29F5D9283F3A00010023E000C0FFFF8D
:100AF0001C0E002038150020CC0F0020E0214900FA
:100B0000621800E09268002A18D011685368C9186A
:100B10008842F7D10600107B000710D4A169136842
:100B200099420CD350681B18994208D2C0195060E2
:100B3000E068C2192000FFF7E6FADAE20600206951
:100B4000864200D22661E02040002118F01900E022
:100B50008968002900D1D5E10A688242F8D1087B72
:100B6000000700D5CEE110460E604A68D2194A60EF
:100B700031000831490701D1039607E0082132000E
:100B80000832891A4907490F711803910721020099
:100B900008320A4205D0082203000833D21A114055
:100BA00040180700039800994018049005460398E0
:100BB000381A0099401A01900098032101430398C4
:100BC0004160BD4201D300F0A9FD012678683040A4
:100BD00001D100F0A3FD0198102801D200F09EFD84
:100BE000A069874207D1E06801994018E060A561DB
:100BF00006436E6084E16069874208D1A06801996C
:100C00004018A060656106436E60285078E17868FE
:100C10008107890F012900D0D1E007218843069080
:100C2000C0081F2843D8B9680291F968009105905F
:100C30000098874201D100F071FD0298874201D1EE
:100C400000F06CFD7868072188430599C900884247
:100C500001D000F063FD200028300599C90040183C
:100C60000299814207D02269914200D29FE0C9686F
:100C7000B94200D09BE00099029A914206D12168C6
:100C8000059A012090408143216092E0814208D082
:100C900008462169884200D289E08068B84200D0C5
:100CA00085E00098D06002980099886081E0B8697A
:100CB0000290F968B94210D0B86800912169884261
:100CC0002CD3C168B94229D100998968B94225D18C
:100CD0000099C1600099886022E03A0014321068DF
:100CE0000090002805D13A001032106800900028CA
:100CF00016D0009801E00A001068010014310B685A
:100D0000002BF8D1010010310B68002BF3D10090BB
:100D10002069824202D30020106001E000F0FEFC56
:100D20000298002845D0982040002018F9698900D1
:100D3000401801688F420AD100990160002915D13D
:100D40006168FA69012090408143616031E0029856
:100D50002169884208D30069B8420098029901D1FC
:100D6000086103E0486101E000F0D8FC0098002829
:100D70001FD020690099814219D30299009A91618C
:100D80003969002908D0814204D300980161009894
:100D9000886101E000F0C2FC7869002809D021696F
:100DA000884204D3009948610099816101E000F014
:100DB000B5FC06983F18019806994018019078688C
:100DC000B0437860019830436860019828500198DA
:100DD000C0081F2826D80290200028300299C90098
:100DE0004018009007460198102801D200F096FCA8
:100DF000206802990200CA40324003D18E40064367
:100E0000266008E0009880682169884201D30700C5
:100E100001E000F083FC00988560FD60AF60009801
:100E2000E8606DE00198000A25D03104884201D3C2
:100E30001F2020E0FF21C9434118090C082211405E
:100E400000918840B8494118090C0422114088409B
:100E5000B64A8218120C02231A400E23009FDB1B95
:100E6000591A891A9040C00B08184100019AC01DF8
:100E7000C2403240881898214900611882008918C0
:100E8000E86100236B612B6162681700C74037403F
:100E900004D18640164366600D601DE009681F2876
:100EA000019E01D1019805E019224008101A8640E0
:100EB000F8E739004A680727BA43824211D00A008E
:100EC0001032F70FBF00D21976001768002FF0D14B
:100ED0002069824212D31560A961ED600498A86070
:100EE0000EE088682269914208D3904206D3C5601B
:100EF000049A8A60A860E960AB6101E000F00EFC32
:100F0000039C08E1A56929002000FFF7D9F80168D2
:100F10004068081802902738410701D1002003E0FB
:100F20000821081A4007400F029908182F38290095
:100F30001031884201D2019500E0019001981830EB
:100F40000490002003903A00283A31002000FFF777
:100F5000DAF801980830400701D000F0DFFB1B20D1
:100F60000199486001980830E02149006118102279
:100F700000F0F0FB6E48066147610021C1610199F4
:100F800008318161029A07230498039900E0001D4B
:100F90004360491C060008369642F8D3012901DC5B
:100FA00000F0BCFB0198A84200D1A2E0421B281D22
:100FB0008018016801239943016001201043686093
:100FC000AA50D0081F2822D801902000283001996B
:100FD000C90047183E00102A01D200F09FFB21688B
:100FE0000120019A0B00D340034003D190400843F5
:100FF000206007E0B8682169884201D3060001E05B
:1010000000F08CFBBD60F560AE60EF6071E0100A2F
:1010100027D01904884201D31F2022E0FF21C943B1
:101020004118090C08263140029188403E49411878
:10103000090C0426314088403C4E8619360C0227A4
:101040003E4001960E26029FF61B711A019E891BD7
:10105000B040C00B08184100C01D1600C6401E401D
:101060008819982149006118860089190191E86161
:1010700000216961296166683700C7401F4007D1B8
:10108000834033436360019805600198A8611FE0C5
:10109000019B1B681F2801D1100006E0192640089B
:1010A000361A1000B04000E03B005E680727BE43E0
:1010B000964210D01E001036C70FBF00F619400030
:1010C0003768002FF0D12069864210D33560AB61BC
:1010D000ED60AD600DE098682269934207D39042BD
:1010E00005D3C5609D60A860EB60A96101E000F0D8
:1010F00015FBE068009981420FD2401AE060A169B7
:10110000009A8A18A26101230343536000980322C6
:1011100002434A600C00083400E0002400BF00BF16
:10112000200007B0F0BD000000F0FFFF00C0FFFF8F
:10113000CC0F0020002800D17047F8B584B00838E3
:10114000050000BF00BF474C2069854200D2DAE2AB
:101150006868032103220240012A00D1D3E2C708B4
:10116000FF00EA1900920126304242D12A68084065
:1011700000D1CAE2BF1850422D182069854200D222
:10118000C1E26069854200D106E1D008202800D381
:101190007EE0A9680291E968019103900198854277
:1011A00001D100F0BBFA0298854201D100F0B6FAF5
:1011B0006868072188430399C900884201D000F07C
:1011C000ADFA200028300399C900401802998142E5
:1011D00005D02269914258D3C968A94255D10199D5
:1011E000029A914242D12168039A012090408143A2
:1011F00021600098854200D385E24068304200D1EA
:1012000081E2810700D5C9E10099A269914200D02D
:10121000D2E0E068C019E060A56106436E606169D4
:101220008D4202D100216161A160E169814200D358
:101230006BE20D480068002801D1FEF74FFFA1695D
:10124000002900D161E2E068292802D32000FEF7DE
:1012500037FFE069E168884200D356E20020C043CE
:10126000E06152E21C0E002038150020814206D0B9
:1012700008462169884208D38068A84205D10198B0
:10128000D060029801998860B3E700F047FAB0E7B0
:10129000A8690290E968A94210D0A8680191216963
:1012A00088422CD3C168A94229D101998968A942F1
:1012B00025D10199C1600199886022E02A00143289
:1012C00010680190002805D12A00103210680190A2
:1012D000002816D0019801E00A00106801001431BE
:1012E0000B68002BF8D1010010310B68002BF3D1F3
:1012F00001902069824202D30020106001E000F0DA
:101300000DFA0298002800D173E7982040002018B9
:10131000E9698900401801688D420AD1019901608C
:10132000002915D16168EA6901209040814361601C
:101330005FE702982169884208D30069A8420198B2
:10134000029901D1086103E0486101E000F0E6F98B
:101350000198002800D14CE720690199814294D37B
:101360000299019A91612969002908D0814204D328
:10137000019801610198886101E000F0CFF9686986
:10138000002800D135E72169884200D27DE7019924
:101390004861019981612CE7009840680140032968
:1013A00000D026E7A76000984068B04300994860E5
:1013B0003E436E60EF51A8E16269914207D1A06897
:1013C000C019A060656106436E6028509DE1072149
:1013D00088433F18C00820284AD2009989680291A2
:1013E0000099C9680191039000980199884201D140
:1013F00000F094F900980299884201D100F08EF92A
:1014000000984068072188430399C900884201D0A9
:1014100000F084F9200028300399C900401802998F
:10142000814208D02269914200D2ACE0C968009A9A
:10143000914200D0A7E00199029A914206D1216819
:10144000039A01209040814321609EE0814209D0AF
:1014500008462169884200D295E080680099884258
:1014600000D090E00198D0600298019988608CE0EB
:101470000098806902900098C0680099884212D054
:10148000009989680190206981422DD3C868009A2B
:10149000904229D101988068904225D10198C86076
:1014A0000198816022E0009A1432106801900028AF
:1014B00005D1009A103210680190002816D00198CA
:1014C00001E00A001068010014310B68002BF8D10C
:1014D000010010310B68002BF3D10190206982428A
:1014E00002D30020106001E000F018F902980028F3
:1014F0004BD09820400020180099C96989004018F5
:101500000099026891420BD101990160002917D11D
:1015100061680098C269012090408143616034E0B5
:1015200002982169884209D300690099884201988C
:10153000029901D1086103E0486101E000F0EEF892
:101540000198002821D02069019981421BD302997A
:10155000019A916100990969002908D0814204D358
:10156000019801610198886101E000F0D7F80098C6
:101570004069002809D02169884204D30199486153
:101580000199816101E000F0C9F8012038436860E9
:10159000EF516069854208D1A760B6E0B043009979
:1015A0004860012038436860EF51F808202827D2AE
:1015B0000290200028300299C90040180090019044
:1015C000102F01D200F0AAF8206802990200CA4048
:1015D000324003D18E400643266008E000988068C0
:1015E0002169884201D3019001E000F097F800984A
:1015F00085600198C5600198A8600098E86084E063
:10160000380A01D1002227E03104884201D31F2289
:1016100022E0FF21C9434118090C08221140019121
:1016200088403C494118090C04221140009188402F
:1016300039494118090C022211400E22019BD21A8D
:10164000009BD21A521A8840C00B10184100C01DCE
:101650003A00C24032408A18982040002018910079
:1016600040180090EA6100206861286161680B0001
:10167000D340334007D196400E4366600098056022
:101680000098A8611FE0009909681F2A01D13A005B
:1016900006E0192352089B1A3A009A4000E03100F4
:1016A0004B680726B343BB4210D00B001033D60F54
:1016B000B6009B1952001E68002EF0D120698342AB
:1016C00010D31D60A961ED60AD600DE08A682369EB
:1016D000994207D39A4205D3D5608D60AA60E9602C
:1016E000A86101E000F01AF8206A401E20620CD1C7
:1016F000E4204000205800E080680028FCD1002051
:10170000C043206201E000F009F800BF00BF05B04F
:10171000F0BD000000F0FFFF00C0FFFF80B501201A
:1017200000F032F801BD1A0007490868002801D00E
:101730000020704705480722904308600449914300
:10174000091A0160704700BF68160020871A002040
:10175000801F002070B4103A03D378C9103A78C0C3
:10176000FBD2530701D318C918C001D508C908C056
:10177000D20704D30B880380891C801C002A01D562
:101780000B78037070BC704780B500BF00BF024A81
:1017900011001820ABBEFBE72600020030B53C4923
:1017A0000020085E020012B2002A1CD001221300A1
:1017B000DBB202246343CB5E002B0DD01300DBB2FF
:1017C00002246343CB5A1400E4B202256C430C1983
:1017D000A41E2380521CEAE70023D2B202246243F3
:1017E0008918891E0B8000B230BD10B50021284A2F
:1017F0000B00DBB202246343D35E002B01D0491CF3
:10180000F5E70B00DBB2022B0BDB0B00DBB2022493
:101810006343D3189B1E00241B5F040024B2A34221
:1018200004D00B00DBB202246343D05210BD30B5AC
:10183000002203001BB2002B0ED0154B1400E4B2A3
:1018400002256C431C5F21001400E4B202256C43A6
:1018500018530800521CECE730BD00B50C480021BD
:10186000405E002801D1012000E00020C0B200BD90
:1018700010B5002108000200D2B2502A07D2044A53
:101880000300DBB202246343D152401CF3E710BDD6
:1018900068130020F1B582B0B84C4920205C0028C4
:1018A00001D100F023FD4420205E002800D147E252
:1018B000B3480078002801D100F082FC4420205E6B
:1018C000092801D100F07CFC00273800B5490880C8
:1018D00025004835380028704420205A462160529F
:1018E0004420205E401E2CD0401E2BD0401E43D0F2
:1018F000401E022800D8D2E1C01E57D0401E69D039
:10190000801E00D1CBE1401E00D150E1401E00D12D
:101910005AE1401E00D1B6E0401E00D161E1401EF8
:1019200000D1A2E1401E00D1ACE1401E00D184E014
:10193000801E00D169E1401E00D186E1401E70D0BA
:10194000CCE1CDE1B74E3100B74800F071FD002881
:101950000BD13100B54800F06BFD002805D13100F6
:10196000B34800F065FD002803D0022049216054EF
:1019700001E082202870B3E1AA4E3100AC4800F0AB
:1019800057FD00280BD13100AA4800F051FD002876
:1019900005D13100A84800F04BFD002803D00320FA
:1019A0004921605401E08220287099E19D4E310068
:1019B000A24800F03DFD002805D13100A04800F00C
:1019C00037FD002803D004204921605401E0822023
:1019D000287085E1934E00223100BA4800F060FD86
:1019E00000281BD0300000F036FD217881220A400B
:1019F00040007E210140114321702078C0B2400890
:101A00008006800E00280BD10820FFF710FF092068
:101A1000FFF70DFF0920FFF70AFF01E08220287081
:101A20005EE1A94800F0CCFD002803D00620A749BC
:101A3000087001E08220287052E17A4E3100BB48E4
:101A400000F0F6FC002805D13100B9A000F0F0FC50
:101A5000002815D0B74E300001F014F86846B6499A
:101A60000A8802803100684600F067FD300001F00E
:101A70002FF8300001F0D9F80920E16C087001E07E
:101A80008F2028702CE1674E3100AC4800F0D0FC6C
:101A9000002805D13100BC4800F0CAFC002803D062
:101AA0003800E16C487081E03100B84800F0C0FCBB
:101AB000002805D13100B64800F0BAFC002803D058
:101AC0000120E16C487071E03100B24800F0B0FCD8
:101AD000002805D13100B04800F0AAFC002803D04E
:101AE0000220E16C487061E03100B84800F0A0FCD1
:101AF000002805D13100B64800F09AFC002803D038
:101B00000520E16C487051E03100B24800F090FCD3
:101B1000002805D13100B04800F08AFC002803D02D
:101B20000320E16C487041E03100AC4800F080FCDB
:101B3000002805D13100AA4800F07AFC002806D020
:101B40000620E16C48700820E16C08702EE031003E
:101B5000A44800F06DFC002805D13100A24800F037
:101B600067FC00280ED00920E16C4870E06C00781A
:101B700005281BDB0420E16C087017E01813002017
:101B80007B1600203100994800F052FC002805D156
:101B90003100974800F04CFC002805D00720E16C8C
:101BA000487003E06E1600208220287098E01D49DE
:101BB0001F4800F03DFC002803D00220E16C0870B3
:101BC00001E0822028708BE01649194800F030FCB3
:101BD000002803D00320E16C087001E08220287007
:101BE0007EE01049124800F023FC002803D00520B5
:101BF000E16C087008E00E20FFF719FE1420FFF7D3
:101C000016FE1320FFF713FE6AE00649BF4800F0F6
:101C10000FFC002816D00320E16C08703800E16C3E
:101C2000487011E0F40F0020608200086C82000808
:101C3000408300087882000884820008F48000084D
:101C40009C810008822028704AE0B149B14800F028
:101C5000EFFB002806D00420E16C08700120E16C45
:101C6000487001E0822028703AE0A949A94800F0B4
:101C7000DFFB002803D00720E16C087001E0822020
:101C800028702DE0A249BA4800F0D2FB002803D00A
:101C90000820E16C087001E08220287020E09C4957
:101CA0009C4800F0C5FB002812D04920205C042885
:101CB00004DB4920205C401C492160540820492154
:101CC00060540AE048830008F60F0020FC1400204E
:101CD0000420492160548220287001E08620287069
:101CE0004420205A462160524820205C002816D00B
:101CF0004820205C822812D1854E00223100B6484F
:101D000000F0CEFB002802D08A20287007E03100C6
:101D1000B24800F08DFB002801D1832028703800E4
:101D200044216052AE4807704AE200BF5083000869
:101D30003E2000001C0C002026170008148000081C
:101D4000A74D2878002861D04920205C08285AD166
:101D5000E06C0078072853DBE06C0078082800DA94
:101D60002EE2E06C0078092821D1694E0022310072
:101D70009C4800F095FB002810D000200100E26C88
:101D8000917028700FE000BF0C81000830800008BF
:101D9000B08100084C80000824810008300001F068
:101DA0004DF8002028700820E16C087008E2584EB9
:101DB0003100B74800F03CFB00281BD00620E16C46
:101DC000087001F08CF900202870F9E168800008A3
:101DD0003C8100088480000854810008A08000082D
:101DE0006C810008BC80000884810008A07F000886
:101DF000D8800008300001F021F800202870DFE1D1
:101E000000202870DCE100202870D9E1FFF725FDD3
:101E1000002800D0D4E19F4FFFF7C0FC38809E4DD2
:101E20000026300028804420205E002800D1C7E131
:101E30004420205E401E35D0401E40D0401E4CD075
:101E4000401E6DD0C01E56D0401E77D0401E00D11F
:101E50009CE1801E00D191E0401E00D1ADE0401E0B
:101E60007BD0401E00D1F3E0401E00D14EE1401E69
:101E700000D164E1401E00D174E1801E00D118E160
:101E8000401E00D1C0E0401E00D129E1EA380DD04B
:101E9000401E00D17EE1401E00D17FE1401E00D1F6
:101EA00080E181E1FA20C00028807DE100F0A6FEFB
:101EB000300049216054FA20C000288074E1492094
:101EC000205C002805D0AC4800F0AFFEAB4828806D
:101ED00002E089204821605466E14920205C022804
:101EE00005D1A74800F0A1FEA448288002E08A207E
:101EF0004821605458E14920205C03280CDBBA4893
:101F000000F093FEB948288009E000BF90820008E5
:101F1000F40F0020408300088B204821605443E1E7
:101F20004920205C032805DBB14800F07EFE934881
:101F3000288002E08C204821605435E14920205C53
:101F4000082806D1AB4800F070FEFA204000288037
:101F500002E08D204821605426E14920205C0828B9
:101F600008D1A54800F061FEFA204000288004E076
:101F7000C48100088D204821605415E14920205C6F
:101F8000082816D1E06C4078002806D19B4800F064
:101F90004CFEFA20400028800EE0300038800B20F4
:101FA000FFF745FC0D20FFF742FC1320FFF73FFC35
:101FB00002E08D2048216054F6E04920205C08288A
:101FC0001ED1E06C407800280ED18D4800F02DFE27
:101FD000FA204000288016E0588300089C82000800
:101FE0007B160020FC820008300038800C20FFF7B0
:101FF0001EFC0D20FFF71BFC1320FFF718FC02E06E
:102000008D2048216054CFE04920205C08281BD156
:10201000E06C0078032813D1E06C4078002808D0E9
:102020001420FFF704FC0D20FFF701FC1320FFF73D
:10203000FEFBAF4800F0F9FDFA204000288006E0E2
:102040000320E16C887002E08D2048216054ABE0F1
:102050004920205C082828D1E06C007804281DD194
:10206000E06C407801280CD00E20FFF7E0FB142034
:10207000FFF7DDFB0D20FFF7DAFB1320FFF7D7FB9F
:1020800092E0B44800F0D1FDB348288010E000BFD2
:10209000A88200085C1300206E1600200320E16C6B
:1020A00088708F204821605402E08D2048216054C0
:1020B0007AE04920205C08280ED1E06C00780028E6
:1020C00006D0A64800F0B1FDFA200001288006E005
:1020D0000320E16C887002E08D204821605463E0A9
:1020E0004920205C08280DD1E06C0078052805DB2C
:1020F0009B4800F09AFD2148288006E00320E16C0F
:10210000887002E08D20482160544DE04920205C19
:10211000082810D1E06C0078062808D1B54800F0F6
:10212000D7FCB44800F081FDB348288006E00320C6
:10213000E16C887002E08D204821605434E0492031
:10214000205C08280AD1E06C0078072802D1AF484B
:10215000288006E00320E16C887002E08D20482191
:10216000605421E04920205C00280BD0A84800F0F2
:102170005CFD0248288008E060830008DC05000060
:10218000688300088D20482160540DE0FA2080000B
:10219000288009E0FA20C000288005E0FA2000012C
:1021A000288001E09B4828804820205C002804D03B
:1021B0004420205A462160523E806068964908605B
:1021C00096480188002934D0934909680288891803
:1021D000626891422DD24421615E092912D1002109
:1021E0004422A15223E000BFB4820008C4090000C9
:1021F000C0820008CC820008D4810008E481000875
:10220000F48100084421615E01290AD04421615A09
:102210004622A15200214422A15287214822A154E2
:1022200005E000214422A15201214922A1540021AC
:1022300001804820205C002844D04820205C83286E
:1022400003D04820205C87280AD16078032807DA69
:102250004620205EFFF7EBFA6078401C607031E0AA
:102260004820205C8B2809D16078032806DA0320F7
:10227000FFF7DDFA6078401C607023E04820205CA6
:102280008A2809D16078032806DA0220FFF7CFFAFE
:102290006078401C607015E04820205C8C2809D1D3
:1022A0006078032806DA0720FFF7C1FA6078401C3F
:1022B000607007E000200100617001004822A15415
:1022C0004421605260685649884206D3FFF7D0FA2D
:1022D00000F094FC00204921605460686430606024
:1022E000642301220021029801F072F8F7BD00007A
:1022F000D882000880B500F057FC4A4801214922E5
:10230000815400210A0042700A004823C254027816
:102310008123134003700278FE2313400370416051
:102320000A004423C252462281520120FFF75DFA7F
:102330000220FFF75AFA0320FFF757FA0920FFF7A8
:1023400054FAFA239B0001223749384801F040F83B
:1023500001BD0000E4820008204E00000482000855
:10236000F082000880B50720FFF73FFA0420FFF74E
:102370003CFA0820FFF739FA01BD80B50D20FFF7C0
:1023800034FA01BD80B50B20FFF72FFA01BD80B5EF
:102390000C20FFF72AFA01BD80B50D20FFF725FAC2
:1023A0000E20FFF722FA01BD80B51320FFF71DFABA
:1023B00001BD80B50D20FFF718FA1420FFF715FABC
:1023C00001BD80B50F20FFF710FA01BD80B51020C8
:1023D000FFF70BFA01BD80B51520FFF706FA01BD26
:1023E00080B51120FFF701FA01BD80B50820FFF785
:1023F000FCF901BDDC7E00088813000080B5FFF702
:1024000037FAFF20FFF7F1F901BD0000983A00000C
:102410001482000810270000301600206E160020DD
:102420007111010018130020951800088C15002068
:1024300000B502001078002802D10878002808D0E2
:1024400010780B78984201D0002003E0521C491C00
:10245000F0E7012000BD00B50100002002001300DC
:10246000DBB2CB5C302B04DB1300DBB2CB5C3A2B52
:1024700001DB521CF3E71300DBB2CB5C302B0DDB2E
:102480001300DBB2CB5C3A2B08DA0A235843130063
:10249000DBB2CB5CC0183038521CECE7C0B200BDD8
:1024A00030B503000024100080B2002817D12000AE
:1024B00080B2185C002810D0200080B2085C002890
:1024C0000BD0200080B2185C2500ADB24D5DA84253
:1024D00001D0002030E0641CE9E701202CE020005E
:1024E000150080B2ADB2A84225D2200080B2185C9F
:1024F000002806D1200080B2085C002801D101200C
:102500001AE0200080B2185C002801D1002013E0FE
:10251000200080B2085C002801D100200CE02000DF
:1025200080B2185C2500ADB24D5DA84201D00020FC
:1025300002E0641CD3E7012030BDF0B502000020AA
:102540000300040025002C00641CADB24D5D002D7D
:10255000F8D1641E1D00ADB2555D002D0AD01D00DE
:10256000ADB2555D2600B6B21F00BFB2F6198D554B
:102570005B1CEFE72500ADB21E00B6B2AD194855A1
:102580000020F0BD70B5020000200400FE232500ED
:10259000EDB2555D002D0ED02500EDB2555D260043
:1025A000F6B28D55641C25001E00EDB2F6B2B542A0
:1025B000EDD3012003E02500EDB24855002070BDA9
:1025C00070B5020000210D000C002800C0B2105CA4
:1025D0002E281BD02800C0B2105C302810DB280049
:1025E000C0B2105C3A280BDA0A2044432800C0B27B
:1025F000105C2418303C200080B2FF2804DD01E08C
:10260000002082E0002080E06D1CDEE72800C0B2E0
:102610001018461C0A000B001800C0B2305C2E28AF
:102620001BD01800C0B2305C302810DB1800C0B2DC
:10263000305C3A280BDA0A2042431800C0B2305C02
:102640001218303A100080B2FF2804DD01E00020AB
:102650005BE0002059E05B1CDEE71800C0B23018D8
:10266000461C0C000D002800C0B2305C2E281BD088
:102670002800C0B2305C302810DB2800C0B2305CCB
:102680003A280BDA0A2044432800C0B2305C2418F0
:10269000303C200080B2FF2804DD01E0002034E05F
:1026A000002032E06D1CDEE72800C0B23018421C6A
:1026B0000B000800C0B2105C2E2825D00800C0B264
:1026C000105C0A2820D00800C0B2105C0D281BD076
:1026D0000800C0B2105C302810DB0800C0B2105CEB
:1026E0003A280BDA0A2043430800C0B2105C1B18DA
:1026F000303B180080B2FF2804DD01E0002004E038
:10270000002002E0491CD4E7012070BDF3B581B080
:102710000400002217002000A04900F073FE08D832
:10272000302002993A00D2B288547F1C380040B25F
:102730009FE015002000002100F078FE08D22D2037
:1027400002993B00DBB2C8547F1C80200006444045
:102750002000FE21890500F069FE3FD23020029959
:102760003A00D2B288547F1C2E2002993A00D2B28D
:1027700088547F1C6846077006263000C0B20B28BC
:1027800028D2874D20003100C9B204225143695834
:1027900000F05FFE00F0B2FE070038003030029912
:1027A0006A461278885468460078401C694608706A
:1027B0003800C0B200F0C0FE3100C9B2042251435B
:1027C000695800F0D4FE0100200000F060FF040012
:1027D000761CD2E76846007840B24AE00620694697
:1027E0000870684642706846007800283FD0200094
:1027F0006B492A00D2B204235A43895800F029FEBB
:1028000000F07CFE06003000C0B2002802D001209B
:10281000694648706846407800281CD03000303047
:1028200002993A00D2B288547F1C3000C0B200F046
:1028300083FE5B492A00D2B204235A43895800F030
:1028400096FE0100200000F022FF04006846007898
:10285000401E694608706D1C2800C0B20628C2D10F
:102860002E2002993A00D2B288547F1CBBE7380070
:1028700040B2FEBDF3B5050000242600002D08D1AE
:10288000302001992200D2B28854641C200040B24A
:102890002CE0444F3000C0B20421484338588542F0
:1028A00001D2761CF5E73000C0B20A281CD22800FD
:1028B0003100C9B204225143795800F059FF6946EA
:1028C0000870684600783100C9B204225143795833
:1028D00048432D1A68460078303001992200D2B260
:1028E0008854641C761CDEE7200040B2F6BDF7B5C4
:1028F000050000242600002D13D13021029822006B
:10290000D2B28154641C20002E22029B0400E4B247
:102910001A55401C029A0300DBB2D154401C40B24D
:102920003AE0204F3000C0B2042148433858854275
:1029300001D2761CF5E73000C0B20A282ADA280056
:102940003100C9B204225143795800F011FF6946A1
:102950000870684600783100C9B2042251437958A2
:1029600048432D1A68460078303002992200D2B2CE
:102970008854641C3000C0B209216A461279891A51
:10298000884205D12E2002992200D2B28854641CBC
:10299000761CD0E7200040B2FEBD0000F123744950
:1029A000B07E0008087F000800B50100002002008A
:1029B00092B28A5C002A06D0020092B28A5C222A75
:1029C00001D0401CF3E780B200BD30B5020000200A
:1029D00003001C00A4B2145D002C0CD01C00A4B297
:1029E000145D222C07D01C00A4B2145D1D00ADB2F2
:1029F0004C555B1CEDE71C00A4B20855002030BD0F
:102A000000B501000020020092B28A5C002A01D0C9
:102A1000401CF8E780B200BD80B520484921415CE8
:102A2000002901D1012018E01D4901220A7000226D
:102A30004A70C164FFF7A1FCFFF7A4FCFFF7A7FCF5
:102A4000FFF7B7FCFFF7A8FCFFF7C5FCFFF7CDFCCD
:102A5000FFF7B7FCFFF7BAFC002002BD10B5002459
:102A60000F482100017021004170FFF79DFC0B48C9
:102A7000C464002010BD10B504000A480460FFF7CC
:102A8000AFFC10BD38B50400064D2100286801F0E8
:102A900066F9286801F05DF831BD000018130020C8
:102AA000FC1400203816002010B5040024480460EF
:102AB000264902228A80A022D2050A601F4A2149A3
:102AC000006801F0BBFB00201F490880002010BDFA
:102AD00070B504001A480168496F2129FAD0002115
:102AE0000D002A0092B2A25C002A11D02A0092B2F4
:102AF000A25C174B2E00B6B29A55164A1388802650
:102B0000F600B34202DB1180032016E06D1CE8E7FB
:102B1000104A13888026F600B34202DB118003209E
:102B20000BE00B490A222B009BB2CA546D1C2A00F1
:102B300092B2006801F03EFB002070BD010400006D
:102B400040160020180800207616002000160020ED
:102B5000140400207416002070B506005849594D21
:102B60002960594C2160594801605949594A0A6005
:102B70002022AA801022A2808022520182808022FC
:102B800052008A8095490E6001228188006802F017
:102B9000FBF90122A188206802F0F6F90122A98838
:102BA000286802F0F1F970BD80B54848002281889C
:102BB000006802F0E9F9444801228188006802F0C7
:102BC000E3F9404800228188006802F0DDF9FA2329
:102BD0009B0001227849824800F0FAFB814B0122D8
:102BE0008149824800F0F4FB012081490870642388
:102BF00001228049804800F0EBFB01BD80B5002038
:102C00007B490870012301227C497D4800F0E0FBEC
:102C10000B2301227B497C4800F0DAFB15230122BB
:102C20007A497B4800F0D4FB01BD70B50600002551
:102C30002C00200080B2305C002801D0641CF8E732
:102C4000220092B231006548006801F0B3FA714881
:102C5000FFF73EFF3000FFF73BFF28006E4908708A
:102C60006E48057070BD10B50400174801228188B8
:102C7000006802F089F910BD10B504001148012266
:102C80008188006802F080F910BD10B504000F487B
:102C900001228188006802F077F910BD10B50400A8
:102CA000094800228188006802F06EF910BD10B555
:102CB0000400064800228188006802F065F910BD12
:102CC00000080050E0150020E8150020F015002055
:102CD000F815002000040050F1B582B03F4D504A75
:102CE0005049286801F0AAFA4F4E4D4829685A22E7
:102CF000895A401A30802868C06F002804D128689B
:102D00005A21405A002817D128685A21405A0028D1
:102D100002D1012045490870286801F052FB404A61
:102D20004049286801F08AFA0020414902000A80DF
:102D3000098831803D490870308800282ED03088BD
:102D40003B490988884229D100273C000120296895
:102D50005A22895A401A6946087020006946097843
:102D6000C0B2884209D22F482100C9B2405C314923
:102D70002200D2B28854641CEFE7286801F0E4FA1C
:102D8000274A2849286801F059FA2000C0B200F00B
:102D900015F8274807800088308002E030882449F1
:102DA000088013480078002805D014230122002150
:102DB000029800F00DFBF7BD9D2C000838B505000A
:102DC0001C4C00202900C9B26054144805701AA098
:102DD000FFF77EFE2000FFF77BFE31BD341600209A
:102DE00098150020F20300008B2C0008C815002065
:102DF0007A160020D92C0008D4150020AF2C00082A
:102E0000A4150020672C0008B0150020792C0008BC
:102E1000BC150020708300081C0C00207B160020CD
:102E20000104000010000020721600207916002016
:102E300070160020F40F00202D3E0000F1B588B080
:102E4000AB480178491C0170AA48FFF741FE089879
:102E5000FFF73EFEA84E2020305C032803D0042854
:102E600000D120E139E10A22002104A802F0B8F8DB
:102E70000899A24801F00CF901900198002808D0A7
:102E800001980078062804D104A901984068FFF74A
:102E900079FB019800F0C2FD0198002802D001984A
:102EA00002F0A8F8A74D0024200028700899A64831
:102EB00001F0EEF801900198002808D00198007800
:102EC000062804D1290001984068FFF75BFB0198B0
:102ED00000F0A4FD0198002802D0019802F08AF8C1
:102EE00000F01DFE07009949062000F01FFD0100BB
:102EF00097A000F0ACFD0100380000F0F6FD287846
:102F0000002813D029009348FFF717FB2900280059
:102F100002F088F82900062000F008FD01008E4824
:102F200000F095FD0100380000F0DFFD0120009069
:102F30006946032000F0FAFC010088A000F087FD3C
:102F40000100380000F0D1FD029402AD022028718A
:102F500002A9042000F0EAFC010081A000F077FD46
:102F60000100380000F0C1FD02940120287102A97F
:102F7000042000F0DBFC01007AA000F068FD0100F5
:102F8000380000F0B2FD00946946032000F0CEFC4A
:102F9000010075A000F05BFD0100380000F0A5FD08
:102FA00000946946032000F0C1FC01006FA000F00E
:102FB0004EFD0100380000F098FD009469460320A2
:102FC00000F0B4FC01006AA000F041FD01003800EF
:102FD00000F08BFD00946946032000F0A7FC01007F
:102FE00064A000F034FD0100380000F07EFD02F026
:102FF00058F902900320287102A9042000F096FCE1
:1030000001005DA000F023FD0100380000F06DFD1F
:103010005A4D00956946032000F088FC010058A035
:1030200000F015FD0100380000F05FFD00956946D5
:10303000032000F07BFC010052A000F008FD01001D
:10304000380000F052FD00956946032000F06EFC48
:1030500001004DA000F0FBFC0100380000F045FD30
:1030600000946946032000F061FC010047A000F0D5
:10307000EEFC0100380000F038FD009469460320A2
:1030800000F054FC010042A000F0E1FC0100380017
:1030900000F02BFD3F4807603800FFF7ECFC0420F0
:1030A0002021705419E005202021705400F037FDD4
:1030B0000700012000906946032000F037FC010062
:1030C0002AA000F0C4FC0100380000F00EFD3148D9
:1030D00007603800FFF7CFFCFFE709B0F0BD80B50F
:1030E000FFF7BCFCFFF78AF900202B49087001BDEF
:1030F00078160020F87F0008D814002020830008EC
:1031000070B5264C4920205C002819D100262100EA
:1031100008312348FFF736FA224D21001C312800E0
:10312000FFF730FA210030312800FFF72BFAFFF7C4
:10313000E1F8FFF717F9FFF76FFC03201649087055
:1031400070BD0000B81300202883000848820008E2
:1031500069640000587F0008308300086D66000035
:10316000766C0000746D00007774000073740000CA
:10317000736200007676000076620000D2040000E0
:1031800068770000677400007371000065720000CA
:103190006F7000002C160020F81400201813002077
:1031A000548200083883000800B50200D2B2002A19
:1031B0000BD0022A0FD00BD3042A12D00ED3062A2A
:1031C00015D011D3072A15D017E0744A116014E006
:1031D000734A116011E0734A11600EE0724A116087
:1031E0000BE0724A116008E0714A116005E0714A13
:1031F000116002E0704A1160FFE700BD70B5040085
:10320000002069490968884700256D48056020004D
:10321000C0B2002804D06B48858000F054F807E065
:10322000684E0020634909688847B0803560B56002
:1032300000F016F800205B490968884770BD80B52A
:103240000020FFF7DBFF01BD00B55D490A68002AD9
:1032500003D108600023036001E01100F6E700BD20
:1032600038B55848816800291ED001688268926884
:103270008D1A002D07D48468816809688160200058
:10328000FFF7E2FFEDE750498D420DDB8088290012
:10329000441A210089B20020444A12689047002055
:1032A0004049096888470DE0808880214901441A17
:1032B000210089B200203D4A126890470020394918
:1032C0000968884731BD80B500203A4909688847B8
:1032D0003C498A888880801A020092B2002A04D071
:1032E0000A6803009BB2D2180A6001BD10B53749C5
:1032F0000A68002A06D0836894681B1B002B01D43F
:103300001100F5E70A680260086010BD10B50020E2
:10331000284909688847040000202549096888472A
:10332000211A080080B280225201904201DA012065
:1033300008E00020204909688847002801D00120C2
:1033400000E0002010BDF8B500273C00144D2868AF
:103350008047FFF7B8FFFFF783FF19480668002E84
:103360000BD0316801600D4800688047641C300054
:103370007168884728688047EFE7FFF7C7FF0500B7
:103380000648006880472800C0B20028DED10B48FC
:1033900007702000C0B2F2BD0000000048160020F7
:1033A0004C160020501600205416002058160020FD
:1033B0005C16002060160020641600207C16002099
:1033C00044160020201500200010FFFF28150020C3
:1033D000F8B504000D0017001E00200001F0AFFF3B
:1033E000A6603800C0B2002804D001F09BFFA1689D
:1033F0000818A0602800002800D06560200001F0B7
:1034000081FFF1BD0CB4012212060318DA4207D87D
:103410004B18DA4204D802000A43921802D28142C1
:103420000CBC7047FCD088420CBC70470CB4012225
:1034300012060318DA4207D84B18DA4204D8020001
:103440000A43921802D288420CBC7047FCD08142D9
:10345000FAE730B405004D400122D20715404B1861
:103460000418240E28D01B0E2FD0FF2C34D0FF2B95
:1034700037D0E41A000209021043114343084808F8
:10348000D10D1B1A02D2641EDB181B18DB188342F5
:1034900000D31B1A4941F9D37F3426DDFE2C08DA0C
:1034A000E4054808C907194391416041284330BCED
:1034B0007047FF20C005F9E728001B0E03D0FF2B43
:1034C000F5D14902F3D0D043F1E7FF2C01D14002FE
:1034D000F9D1FF20C005E9E74002F4D1FF2BF8D174
:1034E000F1E728004902E2D0EDE70B020020244278
:1034F000DCD15B129B1CD9D9D805D7E70122D207B2
:103500000118090E7F3910D449421F310FD4001819
:1035100005D2C0011043C84000D5D0437047C00158
:103520001043C84005D44042704700207047004215
:10353000F3D510007047FEE79D2102000AD002D4A7
:10354000491E9218FCD5C905100A1206524100D333
:10355000012A4841704700009D210200EED55242E9
:10356000F446FFF7EBFF0122D2071043604730B467
:1035700005004D400122D20715404B180418240EB7
:103580002ED01B0E32D0FF2C34D0FF2B3AD0E418B3
:103590000002090210431143000A090A9446C2B20C
:1035A0004A43000AC3B24B43000A4843110A5B185E
:1035B0001A43D2B2190A091801D44918641E080A1C
:1035C0007F3C23DBFE2C08DAE40509061143634641
:1035D00099416041284330BC7047FF20C005F9E79E
:1035E00028001B0EFF2BF6D1D043F4E72800FF2C58
:1035F000F1D1F9E74002F7D1FF2B01D14902F3D114
:10360000E005E7E7D8054902E4D0EDE743020020F2
:10361000641CDFD15B129B1CDCD9D805DAE70122E0
:10362000D20703004B402ED4431A01D2C01AC91846
:1036300030B44B180418240E1B0E22D0FF2C20D0BF
:10364000E31A182B1DDC09021143C40D641E00028D
:10365000104394461925ED1A0A00AA40D94045188E
:1036600001D36D08A41CE405D209280A2D062A43BB
:103670006546AA41604103181B0EFF2B01D3C00D04
:10368000C00530BC7047514006E05140CCE70122F4
:10369000D20703004B40F8D4431A03D2C01AC9180A
:1036A0005040514030B44B18090211430418240E05
:1036B0001B0E40D0FF2C3AD025009D410BD31ED8C5
:1036C000C50D4002401A0BD3ED050100400AC905A3
:1036D00091416841D5E7C50D40024918401AD0D044
:1036E00001214008491C0018FCD58C4204D36D1AF6
:1036F000000AED054019C4E7E8051040C1E7182DA0
:10370000BFDCAC1C0D00E140E5414D40012D4941BD
:10371000C40D00021043451A01D46D199543641E6F
:10372000E405280A2D069541604130BC7047FF2B07
:10373000A7D1D843A5E72442A3D10020A1E7F446AE
:10374000002804D4494200F013F840426047404248
:10375000002905D45FD000F00BF840424942604791
:10376000494200F005F84942604703460B43E6D45E
:103770000022030A8B420BD203098B4219D2430861
:103780008B422ED2411A00D2014652411046704758
:10379000FF2209023FD012068B4205D31212090202
:1037A0008B4201D31212090203098B4219D300E0A4
:1037B000090AC3098B4201D3CB01C01A52418309C4
:1037C0008B4201D38B01C01A524143098B4201D372
:1037D0004B01C01A524103098B4201D30B01C01A9D
:1037E0005241C3088B4201D3CB00C01A5241830817
:1037F0008B4201D38B00C01A524143088B4201D344
:103800004B00C01A5241884200D3401A5241CFD2D5
:1038100001461046704708B501F0AEFD08BDFEE751
:10382000F8B507000C0015000820FCF78FFC060017
:10383000377074703800C0B2032819D0052835D00D
:10384000072851D12000C0B2FCF780FC7060002036
:1038500001002200C9B2D2B2914208D20100C9B21D
:10386000695C72680300DBB2D154401CF0E744E0AD
:103870002000C0B204214843FCF768FC70600020BF
:1038800001002200C9B2D2B291420ED20100C9B2E7
:10389000042251436A5873689C460100C9B204234C
:1038A000594363465A50401CEAE726E02000C0B264
:1038B00004214843FCF74AFC70600020010022000C
:1038C000C9B2D2B291420ED20100C9B20422514310
:1038D0006A5873689C460100C9B204235943634681
:1038E0005A50401CEAE708E0002E04D07A203070DD
:1038F000300001F07FFB002000E03000F2BD38B561
:103900000400002C01D101200FE0002528002070C8
:10391000280060706068002805D07A20616808700F
:10392000606801F067FB6560002032BDF8B50700F4
:103930000D000820FCF70AFC0400002C01D1002037
:103940006BE027703800C0B201280AD05BD303288F
:103950001CD014D305282CD020D307284BD030D32B
:1039600051E0002D58D00420FCF7F0FB60606A683D
:1039700069782878FFF754FF616808604CE00420FC
:10398000FCF7E4FB60606068056045E00420FCF73C
:10399000DDFB60602868616808603DE00820FCF796
:1039A000D5FB6060287961680871286861680860E3
:1039B00032E00420FCF7CAFB606028686168086098
:1039C0002AE02800FEF7F0FF0600761C3000C0B2A7
:1039D000FCF7BCFB60606068002804D061682800C8
:1039E000FEF7F3FF18E0002C04D07A2020702000AE
:1039F00001F000FB10E00120FCF7A8FB60602878D4
:103A00006168087008E0002C04D07A202070200043
:103A100001F0F0FA002000E02000F2BD10B5040033
:103A2000002C01D1012011E02078012802D160682A
:103A3000FFF765FF2078022808D06068002805D0CD
:103A40007A2061680870606801F0D4FA10BDF8B59A
:103A500007000E00002E01D100202CE00820FCF70A
:103A600075FB04003800FEF7CBFF05006D1C280035
:103A7000C0B2022808DA002C04D07A20207020007E
:103A800001F0B8FA002016E02800C0B2FCF75EFB97
:103A900020602068002808D1002C04D07A202070F3
:103AA000200001F0A7FA002005E021683800FEF7A9
:103AB00069FD66602000F2BD10B504006068FFF784
:103AC000ADFF6068002805D07A20616808706068E2
:103AD00001F090FA2068002805D07A20216808704B
:103AE000206801F087FA002010BD10B50200002305
:103AF00018001800C0B218280FD21800C0B2042451
:103B000060431058002806D11800C0B20424604356
:103B10001150002002E05B1CEBE7012010BD10B546
:103B20006020FCF713FB0022130011000B00DBB236
:103B3000182B0DD20B00DBB204246343C358002BB7
:103B400004D00B00DBB204246343C250491CEDE7F0
:103B500010BD70B50400002528002E003000C0B252
:103B6000182829D23000C0B2042148432058002828
:103B700020D03000C0B2042148432058FFF79CFFFA
:103B80003000C0B204214843205800280DD07A20CC
:103B90003100C9B204225143615808703000C0B2EC
:103BA00004214843205801F025FA3000C0B2042116
:103BB00048432550761CD1E7002C04D07A20207091
:103BC000200001F017FA70BD70B506000D0000214D
:103BD0000C002222200080B22A54641C306823008A
:103BE0009BB2C018401E007800280AD0306823001D
:103BF0009BB2C018401E007823009BB2E854641C9E
:103C0000ECE7200080B22A54641C3A2023009BB2C7
:103C1000E854641C70680078012800D188E000D264
:103C200092E0032863D006D305286AD073D307280F
:103C30000BD040D388E0200080B22918706840681B
:103C4000006800F08CF8201887E070684068007801
:103C5000002815D07420210089B26854641C20000B
:103C60007221020092B2A954401C7521020092B246
:103C7000A954401C6521020092B2A954401C19E0CD
:103C80006620210089B26854641C20006121020072
:103C900092B2A954401C6C21020092B2A954401C5B
:103CA0007321020092B2A954401C6521020092B215
:103CB000A954401C51E0200080B22A54641C20000A
:103CC00073685B680C00A4B21B5D002B0AD073689C
:103CD0005B680C00A4B21B5D0400A4B22B55401C11
:103CE000491CEDE703009BB2EA54401C35E020007C
:103CF00080B22918706840680068FEF7BBFD201884
:103D00002BE0200080B22918706840680068FEF738
:103D1000FDFC201821E0200080B22A18706840685D
:103D20000179706840680068FEF7E1FD201814E032
:103D30005B20210089B26854641C20005D210200D0
:103D400092B2A954401C08E0200080B22A54641C9E
:103D50002000010089B26A54401C80B270BDF1B5E8
:103D60000F000026340035007B20290089B27854EA
:103D70006D1C00982100C9B204225143405800280C
:103D800017D02000C0B2002804D02C20290089B20E
:103D900078546D1C280080B2391800982200D2B2E5
:103DA00004235A438058FFF70FFF28180500641CAE
:103DB000DFE77D20290089B278546D1C28000100BE
:103DC00089B27E54401C80B2F2BD30B503001000B1
:103DD00080B20818401E0078222801D0521EF6E753
:103DE0000024100080B2085C222811D02000C0B24C
:103DF000185C22280CD0100080B2085C2500EDB2BF
:103E00005D5DA84201D000200FE0521C641CE8E771
:103E1000100080B2085C222806D12000C0B2185CD5
:103E2000002801D1012000E0002030BDF8B584B0A9
:103E300005000C00200080B2285C202801D1641C01
:103E4000F8E7200080B2285C74281CD1200080B2E2
:103E500028184078722814D1200080B22818807861
:103E600075280ED1200080B22818C078652808D1A6
:103E700001206946487101A9491C0720FFF756FD3A
:103E8000FFE00020FDE0200080B2285C662821D100
:103E9000200080B228184078612819D1200080B213
:103EA000281880786C2813D1200080B22818C07898
:103EB00073280DD1200080B228180079652807D119
:103EC00000206946087101A90720FFF72FFDD8E0FF
:103ED0000020D6E0200080B2285C2D280BD02000E6
:103EE00080B2285C302800DAAFE0200080B2285C85
:103EF0003A2800DBA9E00020060001006A461171A3
:103F000001216A465171210089B2695C2D2903D1D2
:103F100001006A465171641C2700390089B2695C4E
:103F20002C291FD0390089B2695C7D291AD0761CF2
:103F3000390089B2695C2E2906D169460979491C84
:103F40006A461171761E0BE0390089B2695C30292E
:103F500004DB390089B2695C3A2901DB002090E07A
:103F60007F1CDAE73100C9B20B2901DB002088E0B1
:103F70006946097900294DD000200290200080B2C6
:103F8000285C2E2811D002983F49FFF7F0FA0090E4
:103F9000200080B2285C3038FFF7DEFA010000987C
:103FA000FFF73DFB0290641CE8E7641C6846048050
:103FB000364C68460088285C30281DDB684600883F
:103FC000285C3A2818DA68460088285C3038FFF701
:103FD000C3FA01002000FFF7CAFA0299FFF71FFB9E
:103FE000029020002849FFF734FA04006846008850
:103FF000401C69460880DCE768464079002804D107
:104000000298802109064840029002A90520FFF786
:104010008DFC36E00390200080B2285C30280FDB56
:10402000200080B2285C3A280ADA03980A21484323
:10403000210089B2695C303940180390641CEAE7BA
:1040400003A90320FFF772FC1BE0200080B2285C6C
:10405000222807D1641C200080B229180620FFF70F
:1040600065FC0EE0200080B2285C7B2801D1002096
:1040700007E0200080B2285C5B2801D1002000E02E
:10408000002005B0F0BD000000002041CDCCCC3DAB
:10409000F3B583B00026009635003700300069463E
:1040A000888034000498290089B2405C00283DD003
:1040B0000498290089B2405C222812D07B2802D0C3
:1040C0007D2802D030E0641C2EE0761C20003100F8
:1040D000C0B2C9B2884201D2009828E0641E761EA0
:1040E00022E02000C0B2012803D13000C0B2002875
:1040F00000D019E07F1CF80715D40498290089B274
:10410000401840783A280ED12A0092B204990398B8
:10411000FFF75BFE002806D02900891C89B20498AD
:10412000FFF784FE03E0FFE76D1CBBE7009805B0D6
:10413000F0BDFEE710B50400002C01D1012035E0F0
:10414000A0690028FFD1606F002805D100207021F0
:104150006054200001F036F9242060672068006870
:104160000121884321680860200000F05FFA0128DF
:1041700001D101201AE0606A002802D0200000F07E
:1041800017FC206840680A490140206841602068A7
:1041900080682A218843216888602068006801219E
:1041A000014320680160200000F071FC10BD000098
:1041B000FFB7FFFF30B50300586F20283CD100291E
:1041C00003D0100080B2002801D1012035E080200A
:1041D00040019C68844207D11C69002C04D10C006A
:1041E000E40701D5012028E070241C5D012C01D1D9
:1041F000022022E0012470255C55D96450241A5312
:1042000052241A5300245C66DC6721255D679D6893
:10421000854205D11869002802D14748586601E057
:104220004648586670201C5418680068802404436F
:1042300018680460002000E0022030BDF0B50300E3
:10424000986F202872D1002903D0100080B2002876
:1042500001D101206BE0802040019C68844207D19D
:104260001C69002C04D10C00E40701D501205EE09C
:1042700070241C5D012C01D1022058E0012425008E
:1042800070269D55596558255A535A255A5300256D
:104290001D669E6886420AD11E69002E03D1254EF6
:1042A0005C27DE5324E0FF265C27DE5320E09E6877
:1042B000002E0AD11E69002E03D1FF265C27DE5393
:1042C00016E07F265C27DE5312E09E6880277F057C
:1042D000BE420AD11E69002E03D17F265C27DE5321
:1042E00006E03F265C27DE5302E02E005C27DE530B
:1042F000DD6722269E671E68B66834431E68B46078
:104300009C68844205D11869002802D10C481866BF
:1043100001E00C48186670201D541868006890244D
:104320006400044318680460002000E00220F0BD2F
:1043300000000000FF010000334C0008EF4B0008B4
:10434000114D00089D4C000810B50400206800685D
:10435000424901402068016020688068012188434B
:104360002168886020688068400619D520688068C8
:104370004021884321688860E06E002810D000202A
:10438000E16E8863E06E01F0A3F8002808D0E06ECB
:1043900001F0F7F8202803D11020E06703200EE099
:1043A00000205A2160520F2021680862206880692D
:1043B00008210143206881612020A067002010BDF2
:1043C000000010B5040020680068244901402068FE
:1043D0000160206880680121884321688860206826
:1043E0008068400629D5206880684021884321687C
:1043F0008860E06E00280CD08A48E16E8863E06E29
:1044000001F090F8002825D0E06EE16E896B8847B6
:1044100020E0002001005A22A15260650F2021688F
:10442000086220688069082101432068816120209A
:10443000A067200001F0A7F80CE0002001005A223C
:10444000A15260650F20216808622020A06720002B
:1044500001F099F8002010BD00000000DFFEFFFF12
:10446000F8B584B004002068C0690090206807682F
:1044700020688068019000980007000F039003985F
:1044800000280ED1202000990140002909D0384091
:10449000002806D0206E002802D02000216E884718
:1044A000BDE00398002800D18FE001200199014070
:1044B000002905D1902149003940002900D184E02C
:1044C00000990140C9B2002906D0F90504D5216838
:1044D0000862E16F0143E1670221009A0A40002A65
:1044E0000AD0019A0240D2B2002A05D02268116295
:1044F000E26F04231343E3670422009B1340002B65
:1045000009D0019B0340DBB2002B04D023681A6260
:10451000E26F1143E16708250099294000290BD07B
:10452000B90604D401990840C0B2002804D020681C
:104530000562E06F2843E067E06F002844D0202048
:1045400000990140002908D03840002805D0206E8D
:10455000002802D02000216E8847E06F029040269C
:10456000206880683040002803D102980540002D63
:1045700025D0200000F0F4FA206880680640002E64
:1045800019D0206880684021884321688860E06EE7
:1045900000280CD02448E16E8863E06E00F0C2FF72
:1045A000002811D0E06EE16E896B88470CE0200096
:1045B00000F0EAFF08E0200000F0E6FF04E0200041
:1045C00000F0E2FF0020E06729E08020400300992E
:1045D0000140002908D00199490205D521680862E7
:1045E000200000F0D3FF1AE080200099014000294C
:1045F00009D03840002806D0606E002802D0200084
:10460000616E88470BE0402000990140002906D0E8
:104610003840002803D0200000F030FBFFE705B051
:10462000F0BD0000C54B0008AD4B0008FEB505000D
:10463000102001006A4651700026370031006A469A
:1046400011700196B8492A688A42FFD0AA682B697E
:1046500013436C691C43EA6922432B681C68B34B03
:10466000234013432C6823602B685C68B04B2340C5
:10467000EC681C432B685C60AB6902932B688B422F
:1046800003D0029A2B6A134302932A689268A94BBB
:104690001340029A1A432B689A602A68A64B9A42E2
:1046A00016D1A64A12680C231340002B06D0042B07
:1046B00008D0082B04D00C2B06D007E0340029E0EA
:1046C000022427E0042425E0082423E0040021E05C
:1046D0002A688A421DD1994A1268C0231B011340DF
:1046E000002B0CD08022D20093420CD080221201E9
:1046F000934206D0C0221201934206D007E0340054
:1047000008E0022406E0042404E0082402E0040097
:1047100000E004002A688A425BD12100C9B2002966
:1047200006D0022908D0042911D0082913D016E098
:1047300001F0FFFA019015E09A4909680840002845
:1047400002D09948019001E0984801900AE001F0F8
:10475000A1FA019006E080200002019002E0012011
:10476000694608700198002800D116E1019869682F
:1047700003225143884206D3686880214901484397
:104780000199884203D201206946087005E1019829
:10479000002180225200002301F000FB02000B00E8
:1047A000686840080021801859416A68002301F0B8
:1047B0000EFB0700C0208000874206D38020400304
:1047C000874202D22868C760E7E001206946087086
:1047D000E3E080210902EA698A4272D12100C9B26C
:1047E000002908D0012913D002291ED0042935D070
:1047F000082940D04AE001F09CFA02214843696848
:10480000490840186968FEF7B3FF80B2070040E02E
:1048100001F09EFA02214843696849084018696816
:10482000FEF7A6FF80B2070033E05E490968084042
:10483000002809D068684008AD4940186968FEF74B
:1048400097FF80B2070008E068684008A94940184F
:104850006968FEF78DFF80B207001AE001F01AFACE
:10486000022148436968490840186968FEF780FFDB
:1048700080B207000DE068684008802149024018B6
:104880006968FEF775FF80B2070002E00120694603
:104890000870102F11D38020400287420DD23900BA
:1048A000AE48084079084907490F014368464180EE
:1048B000684640882968C8606FE001206946087032
:1048C0006BE02200D2B2002A08D0012A11D0022ABD
:1048D0001AD0042A3ED0082A47D04FE001F029FA26
:1048E0006968490840186968FEF742FF80B207000E
:1048F00047E001F02DFA6968490840186968FEF739
:1049000037FF80B207003CE02649096808400028CC
:1049100016D068684008244940186968FEF728FFE7
:1049200080B2070015E000BF00480040F369FFEFC8
:10493000FFCFFFFFFFF4FFFF004400404C10024098
:1049400068684008194940186968FEF711FF80B28D
:10495000070016E001F09EF9696849084018696887
:10496000FEF706FF80B207000BE0686840084018B9
:104970006968FEF7FDFE80B2070002E0012069468B
:104980000870102F06D380204002874202D2286888
:10499000C76002E00120694608702E666E666846B0
:1049A0000078FEBD0010024000093D000024F40024
:1049B00000B52421415CC90707D501684968714ADF
:1049C0000A40816A1143026851602421415C8907D1
:1049D00007D5016849686C4A0A40C16A11430268F8
:1049E00051602421415C490707D501684968674A3D
:1049F0000A40016B1143026851602421415C0907A0
:104A000007D501684968624A0A40416B1143026850
:104A100051602421415CC90607D5016889685D4A57
:104A20000A40816B1143026891602421415C890630
:104A300007D501688968584A0A40C16B114302686A
:104A400091602421415C490614D501684968534AA4
:104A50000A40016C114302685160016C80225203CC
:104A6000914207D1016849684D4A0A40416C11439F
:104A7000026851602421415C090607D50168496834
:104A8000484A0A40816C11430268516000BD7CB500
:104A900005000024EC6701F0CFF9060028680068E3
:104AA00000070CD540480090330000228021890384
:104AB000280000F021F8002801D0032016E0286823
:104AC000006840070CD53848009033000022802150
:104AD000C903280000F010F8002801D0032005E0E9
:104AE00020206867A86770202C54002076BD000045
:104AF00000127A000048E801F4B504000D001F0020
:104B0000069E2068C0692840A84201D1012000E02B
:104B100000206946097888421ED10020C0438642A1
:104B2000EFD001F089F9C01B864201D3002EE8D1F5
:104B3000206800687449014020680160206880682E
:104B4000012188432168886020206067A0670020D9
:104B500070216054032000E00020F2BDF0FF00004F
:104B600001680968694A0A4001680A600168896841
:104B70000122914302689160202181670021016632
:104B800070470000FFFFFDFFFFFFFEFFFFFFFBFF81
:104B9000FF7FFFFFFFEFFFFFFFDFFFFFFFFFEFFFE5
:104BA000FFFF9FFFFFFFF7FFFFFFFF0138B5040086
:104BB000A56A00205A21685252216852280000F04C
:104BC000E3FC31BD38B50400A56A00205A216852C3
:104BD0000F20296808622868806908210143286835
:104BE00081612020A867280000F0CDFC31BD00B510
:104BF000416F21291CD15221415A00290CD1016851
:104C000009688022914302681160016809684022A6
:104C10000A4301680A600BE0C16C0978026891627E
:104C2000C16C491CC1645221415A491E5222815211
:104C300000BD00B5426F212A1FD15222825A002A9C
:104C40000CD10268126880239A4303681A600268D4
:104C5000126840231343026813600EE0C26C110017
:104C60000A88D205D20D03689A62C26C921CC26493
:104C70005222825A521E5223C25200BD10B5040065
:104C80002068006840218843216808602020606710
:104C900000206066200001F0D5F810BD70B5050059
:104CA0005C202E5AA86F222827D12868406A040069
:104CB000200031000140686D0170686D401C68651E
:104CC0005A20285A401E5A2168525A20285A002831
:104CD00019D1286800680D490140286801602868DA
:104CE000806801218843296888602020A867002007
:104CF0002866280001F0A7F805E0286880690821E7
:104D000001432868816170BD5FFEFFFFDFFEFFFF8A
:104D1000F8B505005C202E5AA86F222827D12868F4
:104D2000406A0400686D0700300020403880686DDC
:104D3000801C68655A20285A401E5A2168525A2001
:104D4000285A002819D1286800680C4901402868B1
:104D500001602868806801218843296888602020D4
:104D6000A86700202866280001F06DF805E0286893
:104D700080690821014328688161F1BDDFFEFFFFE2
:104D8000FCB5020000230020019000240868D840F0
:104D9000002800D1F2E0012508682E009E40064060
:104DA00001960198002800D1E6E04868012808D063
:104DB0004868022805D04868112802D0486812289F
:104DC0001CD19668032084461F000220474360469A
:104DD000B8408643CF68BC46180002277843674630
:104DE0008740374397605668280098408643486854
:104DF000000928409840304304005460D7680326D7
:104E0000BC461F00022047433000B8406746874336
:104E10000097886884461F00022047436046B840D8
:104E2000009F384300900098D0604868022802D064
:104E30004868122820D1D808042460431018076A53
:104E4000072000970F24A4461F000740042467434F
:104E50006446BC40009FA743BC460C691F00384015
:104E600004277843844067463C430094D8080424D0
:104E700060431018009C046217681C000220444321
:104E80003000A04087434C683440A44618000224F8
:104E90006043644684403C4314604868C0006BD55E
:104EA000374807682F430760364884469F08042028
:104EB00047436046C05900900F27BC461F00300092
:104EC000384004277843674687400098B843A027B6
:104ED000FF05BA4201D1002517E0384CA24214D098
:104EE000374CA24201D102250FE0364CA24201D13B
:104EF00035000AE0344CA24201D1042505E0334CD0
:104F0000A24201D1052500E006251C00264004240C
:104F10006643B54005431B489C080426744305516D
:104F20002B4C2068019EB0434E68F60302D5050065
:104F3000019828432060274D2C68019EB4434E6899
:104F4000B60302D52000019C04432C60224D286842
:104F5000019EB0434E68F60202D50400019820433A
:104F600028601E4D2C68019EB4434E68B60202D5DF
:104F70002000019C04432C605B1C07E7F3BD00008C
:104F8000341002400800014000B51300DBB2002BD2
:104F900003D00B009BB2836102E00B009BB28362E3
:104FA00000BD10B442690B009BB213401B040C00FF
:104FB000A4B294431C43846110BC704700040050A9
:104FC00000080050000C005000100050001C005061
:104FD0000004014004040140080401400C040140A5
:104FE00010B50400080011000200200000F02CFFA2
:104FF000200010BD80B5FCF79DF801BD00B5010093
:105000000800C0B2102801DBFF200AE00800C0B28F
:105010000A2803DA30310800C0B202E05731080034
:10502000C0B200BDF3B58FB00F98FDF7E9FC69463B
:1050300088818C480B908C480A908C4809908C4849
:1050400008908C480B9908608B480A9908608B4837
:10505000099908608A48089908606846808908307C
:105060004021FEF782FB40214843383005908549B6
:105070000F98FDF787FA802082496A469289885402
:105080006846808908214143069106987D49059A22
:1050900088540698000A7B49059A89184870069832
:1050A000000C7849059A891888700698000E754991
:1050B000059A8918C87000200C900C9805998842B0
:1050C00000DBA6E06F480C9940180D900B98006823
:1050D00007900A980568099800680490089806687F
:1050E00000200400200080B2402878DA200080B23E
:1050F000102807DA049828403700AF4307432100FF
:1051000089B22CE0200080B220280DDA280030403F
:10511000049FB7430743210089B205204843401C40
:105120001021FEF722FB1AE0200080B230280BDAB3
:10513000049F6F407740210089B203204843401DFF
:105140001021FEF712FB0AE00498F7432F43474073
:10515000210089B2072048431021FEF706FB0E9676
:105160000498060004954848484B0295079AD519BB
:10517000AC462500ADB204226A439A586546AD1884
:10518000AC460D9D04224A43AA586546AD18AC466C
:105190002500ADB204226A4382586546009201950B
:1051A000079AD2199C462500ADB204236B4365468D
:1051B000EB58D5180D9B04224A439A58AA180500AB
:1051C00023009BB2042058432858019D009B404275
:1051D000C241029DAD180E980790641C82E70B989F
:1051E0000068079940180B9908600A9800684019F0
:1051F0000A9908600998006804994018099908609C
:10520000089800688019089908600C9840300C9044
:1052100053E700252E00300080B210281DDA114C13
:10522000300080B2205CC0B20009FFF7E7FE1099A1
:10523000320092B202235343C854300080B2205C43
:105240000007000FFFF7DAFE1099320092B2022336
:105250005343C9184870761CDDE710982021455447
:1052600011B0F0BD64150020681500206C150020F9
:10527000701500200123456789ABCDEFFEDCBA989D
:1052800076543210F41000203C7C00083C7B00086F
:1052900010B504000E4804600021006800F0FCFD19
:1052A00010BD38B50A4D286800F05FFF094C28682A
:1052B00000F0CCFF2060286800F090FF064D074802
:1052C00000682168FEF754FA2860286880B232BD71
:1052D000081600200C1600201016002000000020E8
:1052E00000B501000020204A1368002B08D08B4233
:1052F00004D11B681360401C002B01D01A00F3E797
:10530000C0B200BD10B50400184800688047FDF722
:10531000DAFF2000FDF7EAFFFDF7A2FF144800685E
:10532000804710BD10B5114800688047FDF7CBFFDE
:10533000104804680E4800688047200010BD70B512
:1053400004000A4800688047200001F09DF805002D
:105350002000FFF7C5FF2E18054800688047300081
:10536000C0B270BD00000000281500204C160020BF
:1053700048160020201500207047FEE74A480168C3
:1053800001220A43026049480168802252050A430B
:105390000260704700B50168454A914205D1424913
:1053A0000A6880239B0013430B6000BD00B50168B1
:1053B000404A914205D13D490A6880231B061343A8
:1053C0000B6000BD10B586B00400142200216846B1
:1053D000FFF706FE20683849884224D13348016827
:1053E0008022D2020A4302600421344802680A4340
:1053F0000260006801400591059803200090022199
:1054000001910021029103900620049069462C48E6
:10541000FFF7B6FC002200211D2001F0AFF81D208F
:1054200001F0B6F829E020682649884225D11F48B6
:105430000168802292020A43026001211F4802682B
:105440000A43026000680140059105980C20009015
:105450000220019000200290032003900420049079
:105460006946A020C005FFF78BFC002200211C200C
:1054700001F084F81C2001F08BF806B010BD10B5C7
:1054800004002068104988420DD11048016880222C
:10549000D2020A43026000220021022001F06EF8CD
:1054A000022001F075F810BD34100240381002409F
:1054B00000240140007C0040004800402C100240C5
:1054C00000080050004400400028004050100240F6
:1054D00030B50100002002002523CB5C022B05D053
:1054E0000423CB632423C85401201AE00B681B68F3
:1054F0000E24A3430C6823600B681B680124A3439C
:105500000C682360012344240C5D1C2525401C00ED
:10551000AC400D6C6C6025240B552423C85410003E
:10552000C0B230BD38B50400002005002521615C03
:10553000022904D00420E063012005001EE0216858
:1055400009680E22914322681160216809680122CE
:1055500091432268116001214422A25C1C23134064
:105560000A009A40236C5A602522A15424216054D9
:10557000A06B002802D02000A16B88472800C0B291
:1055800032BDC06B704770477047FEE77047FEE75B
:10559000F0B585B00400002C01D101208AE2AE48AC
:1055A00000680C2101400391AB480068802149024A
:1055B0000840029001272068384000285ED00398F8
:1055C000082807D003980C280DD1029880214902A1
:1055D000884208D1A148006880034FD56068002840
:1055E0004CD1012066E2606880214902884206D1E0
:1055F0009A480168802252020A4302601FE06068F4
:10560000A021C90288420BD1944801688022D202AD
:105610000A4302600168802252020A4302600EE0DF
:105620008E4801688E4A0A40026001688022520258
:105630001140049104990168BF4A0A400260606801
:1056400000280DD000F0F8FB0500844800688003B6
:1056500014D400F0F1FB401B6528F6D3032029E2A7
:1056600000F0EAFB05007D480068800306D500F0E5
:10567000E3FB401B6528F6D303201BE2207880075C
:1056800078D5E0680190202101980840002807D0D3
:1056900072480268114301600198202188430190FB
:1056A0000398042805D003980C2831D102980028CB
:1056B0002ED16A480168490704D50199002901D112
:1056C0000120F7E1BA490B68BA4A1A4023691B0264
:1056D00013430B60016809229143019A0A43026057
:1056E00000F0D8FAB4495C4A126812091207120F86
:1056F000895CC840B1490860002000F063FF69463A
:10570000087068460078002834D068460078D1E1F7
:10571000019800281CD0514E306809218843019916
:105720000143316000F088FB05003068400706D473
:1057300000F082FB401B0328F7D30320BAE19C480A
:1057400001689C4A0A40216909021143016011E085
:10575000424E306801218843306000F06DFB050047
:105760003068400706D500F067FB401B0328F7D3DD
:1057700003209FE12078C00674D50398002834D117
:1057800036480068800504D5A069002801D10120B1
:1057900090E187480168B64A0A40216A11430160D6
:1057A00001680902090AE26912060A430260206AD6
:1057B000410B491C380088408021090248437E493A
:1057C000254A126812091207120F895CC8407B49EA
:1057D0000860002000F0F6FE694608706846007810
:1057E00000283FD06846007864E1A069002821D0F5
:1057F0001A4E3068802149000143316000F01CFBE3
:1058000005003068800506D400F016FB401B032815
:10581000F7D303204EE166480168954A0A40216AA1
:105820001143016001680902090AE26912060A438C
:10583000026017E0094E30689F490140316000F076
:10584000FBFA0500306880050CD500F0F5FA401B26
:105850000328F7D303202DE10C1002400010024072
:10586000FFFFFEFF2078000725D56069002810D0D3
:10587000924E30683843306000F0DEFA0500306840
:10588000800718D400F0D8FA401B0328F7D3032070
:1058900010E18A4E306801218843306000F0CCFA74
:1058A00005003068800706D500F0C6FA401B0328C3
:1058B000F7D30320FEE02078400700D489E00020E1
:1058C00069464870802040057D49096801400029EB
:1058D00005D17B490A681043086068464770794FD4
:1058E0008026760038683040002810D13868304370
:1058F000386000F0A1FA050038683040002806D171
:1059000000F09AFA401B6528F6D30320D2E0A06885
:10591000B04204D1694801680E43066026E0A068E1
:1059200000280BD165480168634A0A40026001689B
:10593000654A0A40026019E0FFFFFBFFA068A02152
:10594000C900884209D15D4801688022D2000A431B
:10595000026001680E43066008E058480168564A34
:105960000A4002600168584A0A400260A0680028A4
:105970000ED000F061FA05005048006880051FD481
:1059800000F05AFA401B51498842F5D3032091E0B8
:1059900000F052FA050049480068800510D500F073
:1059A0004BFA401B49498842F5D3032082E000BFEF
:1059B00004100240FFE0FFFF2482000808000020DE
:1059C00068464078012804D13D480168AB4A0A4046
:1059D0000260606A00286CD003980C284AD0606A84
:1059E000022833D1A64F3868A6490140396000F03B
:1059F00023FA04908026B60438683040002807D087
:105A000000F01AFA0499401A0328F3D3032051E056
:105A10009E4801689C4A0A40A16A1143E26A0A430F
:105A2000216B1143016038688021490401433960CA
:105A300000F002FA050038683040002839D100F043
:105A4000FBF9401B0328F6D3032033E08C4E30686B
:105A50008C490140316000F0EFF9050030688001A9
:105A600027D500F0E9F9401B0328F7D3032021E0F4
:105A7000FF1FFFFF606A012801D101201AE083485F
:105A8000006802900298802149020840A16A884279
:105A90000DD10298F02189030140E06A814206D1CC
:105AA0000298C02109040140206B814201D00120ED
:105AB00000E0002005B0F0BDFFFEFFFF50100240E7
:105AC0003810024000700040FFFBFFFF8913000008
:105AD000F3B581B00400002C01D10120CCE00125F8
